:100000000C942D000C94FD020C94FD020C94FD0246
:100010000C94FD020C94FD020C94FD020C94FD0264
:100020000C94FD020C94FD020C94FD020C94FD0254
:100030000C94FD020C94FD020C94FD020C94FD0244
:100040000C94FD020C94FD020C94FD020C94FD0234
:100050000C94FD0200600061800011241FBECFE5FA
:10006000D8E0DEBFCDBFE4E5F0E040E017C0B591D9
:10007000A59135912591059107FD0CC0959185912C
:10008000EF01F92FE82F05900D92A217B307D9F7CA
:10009000FE0104C01D92A217B307E1F7E935F4078A
:0E00A00031F70E942F020C945500F894FFCF08
:1000AE000E94D70258F00E94D00240F029F45F3F20
:1000BE0029F00C94E50251110C94DF020C94FA0213
:1000CE000E94510268F39923B1F3552391F3951BC6
:1000DE00550BBB27AA2762177307840738F09F5F5B
:1000EE005F4F220F331F441FAA1FA9F335D00E2EC8
:1000FE003AF0E0E832D091505040E695001CCAF735
:10010E002BD0FE2F29D0660F771F881FBB1F2617F7
:10011E0037074807AB07B0E809F0BB0B802DBF01CE
:10012E00FF2793585F4F3AF09E3F510578F00C949D
:10013E00E5020C94DF025F3FE4F3983ED4F386951C
:10014E0077956795B795F7959F5FC9F7880F911DBE
:10015E009695879597F90895E1E0660F771F881FAA
:10016E00BB1F621773078407BA0720F0621B730B5D
:0C017E00840BBA0BEE1F88F7E095089583
:10018A000E94D00238F00E94D70220F039F49F3F33
:10019A0019F426F40C94FA020EF4E095E7FB0C9499
:1001AA00E502E92F0E94510258F3BA176207730752
:1001BA008407950720F079F4A6F50C94DE020EF474
:1001CA00E0950B2EBA2FA02D0B01B90190010C015D
:1001DA00CA01A0011124FF27591B99F0593F50F475
:1001EA00503E68F11A16F040A22F232F342F4427CD
:1001FA00585FF3CF469537952795A795F0405395C5
:10020A00C9F77EF41F16BA0B620B730B840BBAF094
:10021A009150A1F0FF0FBB1F661F771F881FC2F7FF
:10022A000EC0BA0F621F731F841F48F48795779513
:10023A006795B795F7959E3F08F0B0CF9395880FCD
:0C024A0008F09927EE0F9795879508950E
:1002560027B32E6027BBC2980497E1F48AB3806F58
:100266008ABB80E20E94AD028FE99FE00197F1F719
:1002760000C0000081E00E9403028CE00E9403029D
:100286009FEF21EE84E0915020408040E1F700C0CE
:10029600000008958FEF8ABB88E30E94AD028FE9C4
:1002A6009FE00197F1F700C0000081E00E94AD02D7
:1002B6008CE00E94AD029FEF21EE84E09150204039
:0A02C6008040E1F700C00000089539
:1002D000E89409C097FB3EF49095809570956195E0
:1002E0007F4F8F4F9F4F9923A9F0F92F96E9BB2796
:1002F0009395F695879577956795B795F111F8CF12
:10030000FAF4BB0F11F460FF1BC06F5F7F4F8F4F7C
:100310009F4F16C0882311F096E911C0772321F072
:100320009EE8872F762F05C0662371F096E8862F0A
:1003300070E060E02AF09A95660F771F881FDAF761
:0A034000880F9695879597F90895A8
:10034A006F9A009739F0019739F46C9A87B3806BEA
:10035A0087BB02C06C98BE9A63307105A1F03CF469
:10036A006130710561F06230710559F008956530A8
:10037A00710579F064F06630710571F00895689A34
:10038A000895699A08958DB183608DB90895709A18
:0E039A000895709A689A0895709A699A089565
:1003A8000E94590288F09F5798F0B92F9927B751A2
:1003B800B0F0E1F0660F771F881F991F1AF0BA9501
:1003C800C9F714C0B13091F00E94DE02B1E008957F
:1003D8000C94DE02672F782F8827B85F39F0B93F71
:1003E800CCF3869577956795B395D9F73EF49095B4
:0E03F8008095709561957F4F8F4F9F4F0895B0
:10040600C1989BB39F709BBB9BB3282F207F922BD9
:100416009BBBC39A35E03A95F1F70000C398EFE12C
:10042600F3E03197F1F700C000009BB39F709BBBD0
:100436002BB3F0E18F9FC0011124822B8BBBC39A93
:1004460035E03A95F1F70000C3988FE39FE10197F5
:08045600F1F700C00000089559
:10045E0084E090E00E942B010E949D0280E895E2CC
:10046E000E94BB0263E070E081E090E00E94A50173
:10047E000E94FF020E94EB02809360000E94EF0236
:10048E002FEF83EC99E0215080409040E1F700C0BF
:04049E000000F0CF9B
:1004A20057FD9058440F551F59F05F3F71F0479523
:1004B200880F97FB991F61F09F3F79F08795089508
:1004C200121613061406551FF2CF4695F1DF08C027
:1004D200161617061806991FF1CF86957105610544
:0404E20008940895DD
:1004E600BC01990F880B990B0E946A019B01AC0114
:1004F60060E074E284E799E40E94F30220E030E0D1
:1005060040E85FE30E94C2020E94C90269B970BD59
:02051600089546
:10051800092E0394000C11F4882352F0BB0F40F409
:10052800BF2B11F460FF04C06F5F7F4F8F4F9F4F49
:02053800089524
:10053A008FE99FE00197F1F700C0000081E00E9477
:10054A0003028FE99FE00197F1F700C000000895C8
:10055A00C1988BBBC39A2FEF81EE94E02150804063
:0C056A009040E1F700C00000C398089525
:0E0576002AB128612AB9579A0E94730208958B
:0E0584005058BB27AA270E94D6000C948C0268
:0E0592000E94D4016894B1110C94DF02089508
:0E05A00000240A941616170618060906089578
:0E05AE0000240A94121613061406050608957A
:0E05BC00E894BB2766277727CB0197F90895AF
:0C05CA0097F99F6780E870E060E00895FA
:0805D6005F9BFECF8CB108957C
:0805DE008FB90E94F702089595
:0805E6000E9467000C948C02D6
:0605EE00779BFECF08958B
:0605F4009FEF80EC08956A
:0405FA000C9400005D
:0405FE006E9A089554
:00000001FF
